{
  "_format": "hh-sol-artifact-1",
  "contractName": "TodoManager",
  "sourceName": "contracts/TodoManager.sol",
  "abi": [
    {
      "inputs": [
        {
          "internalType": "string",
          "name": "todo",
          "type": "string"
        }
      ],
      "name": "addTodo",
      "outputs": [],
      "stateMutability": "nonpayable",
      "type": "function"
    },
    {
      "inputs": [],
      "name": "getAllTodos",
      "outputs": [
        {
          "internalType": "string[]",
          "name": "",
          "type": "string[]"
        }
      ],
      "stateMutability": "view",
      "type": "function"
    },
    {
      "inputs": [
        {
          "internalType": "uint256",
          "name": "index",
          "type": "uint256"
        }
      ],
      "name": "getTodoById",
      "outputs": [
        {
          "internalType": "string",
          "name": "",
          "type": "string"
        }
      ],
      "stateMutability": "view",
      "type": "function"
    }
  ],
  "bytecode": "0x608060405234801561001057600080fd5b50610a3d806100206000396000f3fe608060405234801561001057600080fd5b50600436106100415760003560e01c806395ffebf514610046578063ce2bd5d514610062578063d41eaae514610080575b600080fd5b610060600480360381019061005b919061047f565b6100b0565b005b61006a610124565b6040516100779190610609565b60405180910390f35b61009a60048036038101906100959190610661565b610239565b6040516100a791906106d8565b60405180910390f35b6000803373ffffffffffffffffffffffffffffffffffffffff1673ffffffffffffffffffffffffffffffffffffffff168152602001908152602001600020819080600181540180825580915050600190039060005260206000200160009091909190915090816101209190610906565b5050565b60606000803373ffffffffffffffffffffffffffffffffffffffff1673ffffffffffffffffffffffffffffffffffffffff168152602001908152602001600020805480602002602001604051908101604052809291908181526020016000905b828210156102305783829060005260206000200180546101a390610729565b80601f01602080910402602001604051908101604052809291908181526020018280546101cf90610729565b801561021c5780601f106101f15761010080835404028352916020019161021c565b820191906000526020600020905b8154815290600101906020018083116101ff57829003601f168201915b505050505081526020019060010190610184565b50505050905090565b60606000803373ffffffffffffffffffffffffffffffffffffffff1673ffffffffffffffffffffffffffffffffffffffff168152602001908152602001600020828154811061028b5761028a6109d8565b5b9060005260206000200180546102a090610729565b80601f01602080910402602001604051908101604052809291908181526020018280546102cc90610729565b80156103195780601f106102ee57610100808354040283529160200191610319565b820191906000526020600020905b8154815290600101906020018083116102fc57829003601f168201915b50505050509050919050565b6000604051905090565b600080fd5b600080fd5b600080fd5b600080fd5b6000601f19601f8301169050919050565b7f4e487b7100000000000000000000000000000000000000000000000000000000600052604160045260246000fd5b61038c82610343565b810181811067ffffffffffffffff821117156103ab576103aa610354565b5b80604052505050565b60006103be610325565b90506103ca8282610383565b919050565b600067ffffffffffffffff8211156103ea576103e9610354565b5b6103f382610343565b9050602081019050919050565b82818337600083830152505050565b600061042261041d846103cf565b6103b4565b90508281526020810184848401111561043e5761043d61033e565b5b610449848285610400565b509392505050565b600082601f83011261046657610465610339565b5b813561047684826020860161040f565b91505092915050565b6000602082840312156104955761049461032f565b5b600082013567ffffffffffffffff8111156104b3576104b2610334565b5b6104bf84828501610451565b91505092915050565b600081519050919050565b600082825260208201905092915050565b6000819050602082019050919050565b600081519050919050565b600082825260208201905092915050565b60005b8381101561052e578082015181840152602081019050610513565b60008484015250505050565b6000610545826104f4565b61054f81856104ff565b935061055f818560208601610510565b61056881610343565b840191505092915050565b600061057f838361053a565b905092915050565b6000602082019050919050565b600061059f826104c8565b6105a981856104d3565b9350836020820285016105bb856104e4565b8060005b858110156105f757848403895281516105d88582610573565b94506105e383610587565b925060208a019950506001810190506105bf565b50829750879550505050505092915050565b600060208201905081810360008301526106238184610594565b905092915050565b6000819050919050565b61063e8161062b565b811461064957600080fd5b50565b60008135905061065b81610635565b92915050565b6000602082840312156106775761067661032f565b5b60006106858482850161064c565b91505092915050565b600082825260208201905092915050565b60006106aa826104f4565b6106b4818561068e565b93506106c4818560208601610510565b6106cd81610343565b840191505092915050565b600060208201905081810360008301526106f2818461069f565b905092915050565b7f4e487b7100000000000000000000000000000000000000000000000000000000600052602260045260246000fd5b6000600282049050600182168061074157607f821691505b602082108103610754576107536106fa565b5b50919050565b60008190508160005260206000209050919050565b60006020601f8301049050919050565b600082821b905092915050565b6000600883026107bc7fffffffffffffffffffffffffffffffffffffffffffffffffffffffffffffffff8261077f565b6107c6868361077f565b95508019841693508086168417925050509392505050565b6000819050919050565b60006108036107fe6107f98461062b565b6107de565b61062b565b9050919050565b6000819050919050565b61081d836107e8565b6108316108298261080a565b84845461078c565b825550505050565b600090565b610846610839565b610851818484610814565b505050565b5b818110156108755761086a60008261083e565b600181019050610857565b5050565b601f8211156108ba5761088b8161075a565b6108948461076f565b810160208510156108a3578190505b6108b76108af8561076f565b830182610856565b50505b505050565b600082821c905092915050565b60006108dd600019846008026108bf565b1980831691505092915050565b60006108f683836108cc565b9150826002028217905092915050565b61090f826104f4565b67ffffffffffffffff81111561092857610927610354565b5b6109328254610729565b61093d828285610879565b600060209050601f831160018114610970576000841561095e578287015190505b61096885826108ea565b8655506109d0565b601f19841661097e8661075a565b60005b828110156109a657848901518255600182019150602085019450602081019050610981565b868310156109c357848901516109bf601f8916826108cc565b8355505b6001600288020188555050505b505050505050565b7f4e487b7100000000000000000000000000000000000000000000000000000000600052603260045260246000fdfea2646970667358221220f64218b34df6e37767bc8f0b697727a82b81a60f608dbbe42719bc4dfe655e4d64736f6c63430008130033",
  "linkReferences": {},
  "deployedLinkReferences": {}
}